S31500000000000045001D1500003315000035150000E1
S3150000001037150000391500003B15000000000000F0
S31500000020000000000000000000000000D5000000F5
S315000000303F1500000000000019010000757C020059
S31500000040E17A0000F97A0000117B0000397B00009C
S31500000050654900000D65020085590200B17E020067
S315000000600D7E02005D7E0200C97A000091770200D3
S31500000070A9770200C1770200E17C0200F97C020048
S31500000080F97F0200697F000099330000000000003C
S31500000090000000000000000000000000000000005A
S315000000A0000000000000000000000000000000004A
S315000000B0000000000000000000000000000000003A
S315000000C0DFF80CD001F0C0FF0048004741D504001E
S315000000D000004500224B19680868B0E8F00F80F36D
S315000000E00988BFF36F8F4FF0000080F311884EF040
S315000000F00D0E70470000000006480068006880F397
S31500000100088862B661B6BFF34F8FBFF36F8F00DF0B
S3150000011000BF00BF08ED00E0EFF30980BFF36F8F6B
S315000001200F4B1A6820E9F00F106008B54FF0100069
S3150000013080F31188BFF34F8FBFF36F8F6BF0AAFD6B
S315000001404FF0000080F31188BDE808401968086880
S31500000150B0E8F00F80F30988BFF36F8F704700BFD8
S31500000160FC854000EFF305807047000040BA7047F9
S3150000017040BA704740BA704740BA704740BA7047B5
S3150000018040BA704740BA704740BA704740BA7047A5
S3150000019040BA704740BA704740BA704740BA704795
S315000001A040BA704740BA704740BA704740BA704785
S3150000065040BA704740BA7047C0BA7047C0BA7047D0
S31500000660C0BA7047C0BA7047C0BA7047C0BA7047C0
S31500000670C0BA7047C0BA7047C0BA7047C0BA7047B0
S31500000680C0BA7047C0BA7047C0BA7047C0BA7047A0
S31500000690C0BA7047C0BA7047C0BA7047C0BA704790
S31500000B40C0BA70474FEA3000704700004FEA3000E5
S31500000B50704700004FEA3000704700004FEA30004F
S31500000B60704700004FEA3000704700004FEA30003F
S31500000B70704700004FEA3000704700004FEA30002F
S31500000B80704700004FEA3000704700004FEA30001F
S31500000B90704700004FEA3000704700004FEA30000F
S31500000BA0704700004FEA3000704700004FEA3000FF
S31500000BB0704700004FEA3000704700004FEA3000EF
S31500000BC0704700004FEA3000704700004FEA3000DF
S31500000BD0704700004FEA3000704700004FEA3000CF
S31500000BE0704700004FEA3000704700004FEA3000BF
S31500000BF0704700004FEA3000704700004FEA3000AF
S31500000C00704700004FEA3000704700004FEA30009E
S31500000C10704700004FEA3000704700004FEA30008E
S31500000C20704700004FEA3000704700004FEA30007E
S31500000C30704700004FEA3000704700004FEA30006E
S31500000C40704700004FEA3000704700004FEA30005E
S31500000C50704700004FEA3000704700004FEA30004E
S31500000C60704700004FEA3000704700004FEA30003E
S31500000C70704700004FEA3000704700004FEA30002E
S31500000C80704700004FEA3000704700004FEA30001E
S31500000C90704700004FEA3000704700004FEA30000E
S31500000CA0704700004FEA3000704700004FEA3000FE
S31500000CB0704700004FEA3000704700004FEA3000EE
S31500000CC0704700004FEA3000704700004FEA3000DE
S31500000CD0704700004FEA3000704700004FEA3000CE
S31500000CE0704700004FEA3000704700004FEA3000BE
S31500000CF0704700004FEA3000704700004FEA3000AE
S31500000D00704700004FEA3000704700004FEA30009D
S31500000D10704700004FEA3000704700004FEA30008D
S31500000D20704700004FEA3000704700004FEA30007D
S31500000D30704700004FEA3000704700004FEA30006D
S31500000D40704700004FEA3000704700004FEA30005D
S31500000D50704700004FEA3000704700004FEA30004D
S31500000D60704700004FEA3000704700004FEA30003D
S31500000D70704700004FEA3000704700004FEA30002D
S31500000D80704700004FEA3000704700004FEA30001D
S31500000D90704700004FEA3000704700004FEA30000D
S31500000DA0704700004FEA3000704700004FEA3000FD
S31500000DB0704700004FEA3000704700004FEA3000ED
S31500000DC0704700004FEA3000704700004FEA3000DD
S31500000DD0704700004FEA3000704700004FEA3000CD
S31500000DE0704700004FEA3000704700004FEA3000BD
S31500000DF0704700004FEA3000704700004FEA3000AD
S31500000E00704700004FEA3000704700004FEA30009C
S31500000E10704700004FEA3000704700004FEA30008C
S31500000E20704700004FEA3000704700004FEA30007C
S31500000E30704700004FEA3000704700004FEA30006C
S31500000E40704700004FEA3000704700004FEA30005C
S31500000E50704700004FEA3000704700004FEA30004C
S31500000E60704700004FEA3000704700004FEA30003C
S31500000E70704700004FEA3000704700004FEA30002C
S31500000E80704700004FEA3000704700004FEA30001C
S31500000E90704700004FEA3000704700004FEA30000C
S31500000EA0704700004FEA3000704700004FEA3000FC
S31500000EB0704700004FEA3000704700004FEA3000EC
S31500000EC0704700004FEA3000704700004FEA3000DC
S31500000ED0704700004FEA3000704700004FEA3000CC
S31500000EE0704700004FEA3000704700004FEA3000BC
S31500000EF0704700004FEA3000704700004FEA3000AC
S31500000F00704700004FEA3000704700004FEA30009B
S31500000F10704700004FEA3000704700004FEA30008B
S31500000F20704700004FEA3000704700004FEA30007B
S31500000F30704700004FEA3000704700004FEA30006B
S31500000F40704700004FEA3000704700004FEA30005B
S31500000F50704700004FEA3000704700004FEA30004B
S31500000F60704700004FEA3000704700004FEA30003B
S31500000F70704700004FEA3000704700004FEA30002B
S31500000F80704700004FEA3000704700004FEA30001B
S31500000F90704700004FEA3000704700004FEA30000B
S31500000FA0704700004FEA3000704700004FEA3000FB
S31500000FB0704700004FEA3000704700004FEA3000EB
S31500000FC0704700004FEA3000704700004FEA3000DB
S31500000FD0704700004FEA3000704700004FEA3000CB
S31500000FE0704700004FEA3000704700004FEA3000BB
S31500000FF0704700004FEA3000704700004FEA3000AB
S31500001000704700004FEA3000704700004FEA30009A
S31500001010704700004FEA3000704700004FEA30008A
S31500001020704700004FEA3000704700004FEA30007A
S31500001030704700004FEA3000704700004FEA30006A
S31500001040704700004FEA3000704700004FEA30005A
S31500001050704700004FEA3000704700004FEA30004A
S31500001060704700004FEA3000704700004FEA30003A
S31500001070704700004FEA3000704700004FEA30002A
S31500001080704700004FEA3000704700004FEA30001A
S31500001090704700004FEA3000704700004FEA30000A
S315000010A0704700004FEA3000704700004FEA3000FA
S315000010B0704700004FEA3000704700004FEA3000EA
S315000010C0704700004FEA3000704700004FEA3000DA
S315000010D0704700004FEA3000704700004FEA3000CA
S315000010E0704700004FEA3000704700004FEA3000BA
S315000010F0704700004FEA3000704700004FEA3000AA
S31500001100704700004FEA3000704700004FEA300099
S31500001110704700004FEA3000704700004FEA300089
S31500001120704700004FEA3000704700004FEA300079
S31500001130704700004FEA3000704700004FEA300069
S31500001140704700004FEA3000704700004FEA300059
S31500001150704700004FEA3000704700004FEA300049
S31500001160704700004FEA3000704700004FEA300039
S31500001170704700004FEA3000704700004FEA300029
S31500001180704700004FEA3000704700004FEA300019
S31500001190704700004FEA3000704700004FEA300009
S315000011A0704700004FEA3000704700004FEA3000F9
S315000011B0704700004FEA3000704700004FEA3000E9
S315000011C0704700004FEA3000704700004FEA3000D9
S315000011D0704700004FEA3000704700004FEA3000C9
S315000011E0704700004FEA3000704700004FEA3000B9
S315000011F0704700004FEA3000704700004FEA3000A9
S31500001200704700004FEA3000704700004FEA300098
S31500001210704700004FEA3000704700004FEA300088
S31500001220704700004FEA3000704700004FEA300078
S31500001230704700004FEA3000704700004FEA300068
S31500001240704700004FEA3000704700004FEA300058
S31500001250704700004FEA3000704700004FEA300048
S31500001260704700004FEA3000704700004FEA300038
S31500001270704700004FEA3000704700004FEA300028
S31500001280704700004FEA3000704700004FEA300018
S31500001290704700004FEA3000704700004FEA300008
S315000012A0704700004FEA3000704700004FEA3000F8
S315000012B0704700004FEA3000704700004FEA3000E8
S315000012C0704700004FEA3000704700004FEA3000D8
S315000012D0704700004FEA3000704700004FEA3000C8
S315000012E0704700004FEA3000704700004FEA3000B8
S315000012F0704700004FEA3000704700004FEA3000A8
S31500001300704700004FEA3000704700004FEA300097
S31500001310704700004FEA3000704700004FEA300087
S31500001320704700004FEA3000704700004FEA300077
S31500001330704700004FEA3000704700004FEA300067
S31500001340704700004FEA3000704700004FEA300057
S31500001350704700004FEA3000704700004FEA300047
S31500001360704700004FEA3000704700004FEA300037
S31500001370704700004FEA3000704700004FEA300027
S31500001380704700004FEA3000704700004FEA300017
S31500001390704700004FEA3000704700004FEA300007
S315000013A0704700004FEA3000704700004FEA3000F7
S315000013B0704700004FEA3000704700004FEA3000E7
S315000013C0704700004FEA3000704700004FEA3000D7
S315000013D0704700004FEA3000704700004FEA3000C7
S315000013E0704700004FEA3000704700004FEA3000B7
S315000013F0704700004FEA3000704700004FEA3000A7
S31500001400704700004FEA3000704700004FEA300096
S31500001410704700004FEA3000704700004FEA300086
S31500001420704700004FEA3000704700004FEA300076
S31500001430704700004FEA3000704700004FEA300066
S31500001440704700004FEA3000704700004FEA300056
S31500001450704700004FEA3000704700004FEA300046
S31500001460704700004FEA3000704700004FEA300036
S31500001470704700004FEA3000704700004FEA300026
S31500001480704700004FEA3000704700004FEA300016
S31500001490704700004FEA3000704700004FEA300006
S315000014A0704700004FEA3000704700004FEA3000F6
S315000014B0704700004FEA3000704700004FEA3000E6
S315000014C0704700004FEA3000704700004FEA3000D6
S315000014D0704700004FEA3000704700004FEA3000C6
S315000014E0704700004FEA3000704700004FEA3000B6
S315000014F0704700004FEA3000704700004FEA3000A6
S31500001500704700004FEA3000704700004FEA300095
S31500001510704700004FEA3000704700000A488047D5
S31500001520012803D009488047094800470948006850
S315000015300047FEE7FEE7FEE7FEE7FEE7FEE7FEE71B
S31500001540FEE7FEE7FEE70000C5260000CD7C0200B0
S31500001550C1000000C4044000004870476447090009
S3150000156010B50446FFF7F8FF0068005D00F00100C3
S3150000157010BDA0F14101192900D8203070470000A4
S315000015800649074A0868504343F239021044086086
S31500001590400870470149086070470000E89940001C
S315000015A06D4EC64110B5441A0346944209D28418BA
S315000015B0114403E011F8013D04F8013D521EF9D231
S315000015C010BD40EA0104A40703D009E010C9121FA8
S315000015D010C3042AFAD203E011F8014B03F8014BB9
S315000015E0521EF9D210BDD2B201E000F8012B491EFD
S315000015F0FBD270470022F6E710B513460A460446AA
S315000016001946FFF7F0FF204610BD421E12F8013FB3
S31500001610002BFBD111F8013B02F8013B002BF9D15D
S31500001620704730B505462A460B4612F8010B13F8EB
S31500001630014B08B1A042F8D01CB1002802D06D1CA5
S31500001640F1E7284630BD10B5044604E00B7800F8F3
S31500001650013B03B1491C521EF8D2204610BDCAB246
S31500001660401E10F8011F8A4202D00029F9D100203D
S315000016707047421C10F8011B0029FBD1801A7047E5
S3150000168010B5002200E0521C835C8C5CA34201D1A1
S31500001690002BF8D1D8B2E1B2401A10BD30B50446DD
S315000016A00020034600E05B1C934203D2E05CCD5C65
S315000016B0401BF8D030BD034611F8012B00F8012B72
S315000016C0002AF9D11846704730B505460020034672
S315000016D000E05B1C934205D2EC5CC85C201A01D189
S315000016E0002CF6D130BD000070B50F4D00B928684A
S315000016F0002412E00A4602E09E4203D0521C1378F0
S31500001700002BF9D1DAB2224305D02BB124B1002146
S3150000171000F8011B04E00446401C0678002EE9D1BF
S315000017202860204670BD0000EC9940000246C9B210
S3150000173000E0401C0378002BFBD102E003788B42CB
S3150000174003D0401E9042F9D2002070472DE9F041A7
S315000017500546002090460E46044600E0641C4445BB
S315000017600BD2285DFFF705FF0746305DFFF701FF47
S31500001770381A02D1295D0029F0D1BDE8F08110B5F3
S31500001780484304464BF0FAFE002805D00021002C01
S3150000179002D0641E0155FAE710BD2DE9F0479146C7
S315000017A00F4680460446002614F8015B2DB1FFF76C
S315000017B0D3FE0068405DC007F6D12B2D02D02D2D3B
S315000017C018D0641E4A463946204600F00DFB27B164
S315000017D03968A14201D1C7F8008071054FF00204B3
S315000017E00BD54042002803DD26F064FE0460A00706
S315000017F0BDE8F08746F48066E4E70028F8DA26F0CC
S3150000180059FE04606FF00040F2E72DE9F05F934661
S315000018100F4680460446002626F04CFED0F800907F
S31500001820824614F8015B2DB1FFF796FE0068405D15
S31500001830C007F6D12B2D02D02D2D1AD0641E002103
S31500001840CAF800105A463946204600F0CDFA01463D
S3150000185027B13868A04201D1C7F80080DAF8000045
S31500001860022809D0CAF80090700505D54842BDE89F
S31500001870F09F46F48066E2E70846F8E770B506464C
S3150000188026F018FE046805460A2200213046FFF7B6
S3150000189084FF2C6070BD2DE9FE4F804681EA03006F
S315000018A0C00F0C46009021F0004123F00045B8EB34
S315000018B00200A94105D24046214690461C460B46E9
S315000018C0024623F00040104347D0270DC7F30A0015
S315000018D0C3F30A510290401A019040286BDAC3F311
S315000018E0130040F4801B0098924620B10023D2EBEF
S315000018F0030A63EB0B0B01985946C0F140025046B0
S3150000190000F041FA06460D4650465946019A00F047
S3150000191059FA10EB08006141002487EA115284EA63
S31500001920E7731A4340D0009A62B3019A012A4FEA3C
S31500001930075215DC001B61EB02014FF0004202EA80
S315000019400752CDE90042001C41F5801132462B4674
S3150000195000F0F7FA03B0BDE8F08F40462146F9E7FC
S31500001960001B61EB0201001C41F5801300185B416E
S315000019702018A2F5001747EB030140EAD570B61907
S315000019806D4111E06D084FEA360645EAC0754FEA2B
S315000019900752001B61EB0201001C41F5801149084A
S315000019A04FEA30000019514132462B4603B0BDE8DC
S315000019B0F04F00F0B7BA0098012240000023D0EBA8
S315000019C0020263EBE073009821464FEAE074B8EB3D
S315000019D0000061EB0401E9E783F000435BE781F077
S315000019E0004158E72DE9FE4F81EA030404F0004464
S315000019F021F0004100944FF0000B23F0004350EA21
S31500001A0001045ED052EA03045BD0C3F30A54C1F367
S31500001A100A552C44A4F2F3340194A0FB0254C1F3FA
S31500001A20130141F48011C3F3130343F4801301FB44
S31500001A30024400FB034E840A970A44EA815447EAAB
S31500001A408357A4FB076802958D0A05FB07854FEAB5
S31500001A50932C04FB0C542705029D4FEA065847EACF
S31500001A601637B5EB08056EEB070C870E920E47EAA4
S31500001A70811742EA8312A7FB0201B6EB0B0164EB66
S31500001A8000042B0D43EA0C335E1844EB1C50DA4677
S31500001A905146E7FB0201C5F313044FEA0B3343EA51
S31500001AA014534FEA0432019C43EA0603A4F10C04E2
S31500001AB00294009CCDE900B400F043FA03B0BDE8FF
S31500001AC0F08F00200146F9E72DE9F04D81EA030485
S31500001AD004F0004B21F0004514464FF0000A23F0B5
S31500001AE0004150EA050220D054EA01021DD0C5F398
S31500001AF00A570246C5F31303C1F31300C1F30A568E
S31500001B0040F4801543F48013A7EB0608101BD64655
S31500001B1008F2FD3873EB050002D308F1010801E075
S31500001B2092185B41B8F1000F03DA00200146BDE8C8
S31500001B30F08D00204FF48011064684460EE0171BF8
S31500001B4073EB050705D3121B63EB050306434CEA4B
S31500001B50010C49084FEA300092185B4150EA010730
S31500001B60EDD152EA030012D082EA040083EA0501AD
S31500001B70084305D0101BAB4106D20122002306E024
S31500001B8000224FF0004302E06FF0010253101AEBFF
S31500001B9006004CEB085110EB0A0041EB0B01BDE8C7
S31500001BA0F04D00F0BFB970B521F0004303430CD0EF
S31500001BB0C1F30A550024D5EB040564EB0403D617DC
S31500001BC0AD1AB34102DB0020014670BD201841EB7F
S31500001BD0025170BD0EB5C10F80EAE0700844CA0715
S31500001BE0002140F233438DE80E000A460B4600F012
S31500001BF0A8F903B000BD0EB540F2334102910021B1
S31500001C00CDE900110A460B4600F09BF903B000BD72
S31500001C100EB540F2334202920022CDE9002213466D
S31500001C2000F08FF903B000BD70B5C1F30A5201F0A0
S31500001C3000450024C1F3130140F2FF3341F4801143
S31500001C409A4201DA002070BD40F233439A42A2F272
S31500001C50334203DC524200F0A5F800E090402C43EA
S31500001C60F1D0404270BDC1F30A5210B5C1F3130161
S31500001C7040F2FF3341F480119A4201DA002010BD90
S31500001C8040F233439A42A2F2334203DC524200F05E
S31500001C9089F810BD904010BD30B5041E71F10004E6
S31500001CA004DB4FF00044404264EB0101141E73F163
S31500001CB0000405DB1C464FF00043524263EB04036D
S31500001CC08B4208BF824230BD30B5041E71F100045C
S31500001CD004DB4FF00044404264EB0101141E73F133
S31500001CE0000405DB1C464FF00043524263EB04033D
S31500001CF0994208BF904230BD30B50B4601460020E0
S31500001D002022012409E021FA02F59D4205D303FAB7
S31500001D1002F5491B04FA02F52844151EA2F1010238
S31500001D20F1DC30BD2DE9F05F0546002092469B466A
S31500001D3088460646814640241BE0284641464746DB
S31500001D40224600F02FF853465A46C01A914110D346
S31500001D5011461846224600F016F82D1A67EB0108C0
S31500001D604F4622460120002100F00DF817EB00092E
S31500001D704E41201EA4F10104DFDC484631462A46C6
S31500001D804346BDE8F09F202A04DB203A00FA02F120
S31500001D90002070479140C2F1200320FA03F3194353
S31500001DA090407047202A04DB203A21FA02F00021F5
S31500001DB0704721FA02F3D040C2F120029140084355
S31500001DC019467047202A06DBCB17203A41FA02F063
S31500001DD043EAE07306E041FA02F3D040C2F1200282
S31500001DE091400843194670472DE9F05F8246007816
S31500001DF0002715468B460AF10104B946302801D062
S31500001E009DB113E014F8010B0127782803D0582858
S31500001E1001D045B10AE00DB1102D07D100271025DC
S31500001E2014F8010B02E0082500E00A250026B0465A
S31500001E300EE005FB080005FB06F1012701EB104645
S31500001E401FFA80F8B6F5803F00D3B94614F8010BA7
S31500001E50294600F00BF90028EBDABBF1000F05D09C
S31500001E600FB1641E00E05446CBF80040B9F1000FF4
S31500001E7006D026F01FFB02210160C81EBDE8F09FB8
S31500001E8048EA0640FAE700000FB4002300B589B01F
S31500001E900CA900910B996FF00042CB601E4B069384
S31500001EA01E4B07930423CDE901321D4A08920246D0
S31500001EB06B46002000F068F909B05DF814FB70B5B8
S31500001EC086B006464FF0FF300091CDE901010020B3
S31500001ED015460C4604903246694604A8FFF7D4FF1F
S31500001EE003460498211825B108B10A4600E02246A7
S31500001EF02A6000280DD0002B02DD0098884208D009
S31500001F00081B0094CDE901043246694604A8FFF790
S31500001F10BBFF06B070BD0000C1230000DF23000038
S31500001F206115000010B5141E73F1000408DA401C98
S31500001F3041F1000192185B411A4301D120F00100E2
S31500001F4010BD2DE9F04D92469B4611B1B1FA81F2D2
S31500001F5002E0B0FA80F220329046FFF714FF044602
S31500001F600F4640EA0A0041EA0B0153465A46084327
S31500001F7013D0114653EA010019D0C8F14002504669
S31500001F80FFF710FF05460E46504659464246FFF7F4
S31500001F90FAFE084305D0012004E020463946BDE894
S31500001FA0F08D0020054346EAE0762C4337430A9835
S31500001FB06305E40AA0EB08000022FD0A44EA475440
S31500001FC00A3002D500200146E9E7010510196941EA
S31500001FD0DDE9084500196941BDE8F04DA2E7C1F306
S31500001FE00A52C1F3130140F2FF3341F480119A42C1
S31500001FF002DA00200146704740F233439A42A2F2C9
S31500002000334202DC5242FFF7CDBEFFF7BCBE01F001
S31500002010004330B421F0004150EA010206D00A0D17
S31500002020A2F56072C1F31301002A02DC30BC002065
S315000020307047440F44EAC104C100E01830BC00EB0D
S31500002040C25000F0DDB90000064C074D06E0E0681E
S3150000205040F0010394E8070098471034AC42F6D3E9
S31500002060FEF732F8DCB609001CB709003A2800D2A0
S31500002070303820F02002412A01D3A2F137008842ED
S3150000208001D34FF0FF3070472DE9FF4F087881B03C
S315000020909946FF2805D0491C2D2804D0002400238A
S315000020A008E000230BE00124F9E703EB830300EBD0
S315000020B04303491C0878FF28F7D104B15B4200208E
S315000020C00090147801462D2C01D02B2C04D1521CE3
S315000020D02D2C12D00024009400251678FF2E0ED049
S315000020E00A24A0FB04C801FB0481002700FB07119A
S315000020F0521C16EB0C006941EFE70124EBE799440B
S3150000210050EA01020ED00024AA4D2646DFF8A88226
S31500002110FFF77EFD82468B46B9F1000009DAC9F168
S3150000212000071BE001980021C0E9001105B0BDE8D9
S31500002130F08F074612E0F80707D022462B463046B6
S315000021404146FFF74FFC0646884622462B46104678
S315000021501946FFF747FC04460D467F10002FEAD1CB
S31500002160B9F1000F324643465046594602DAFFF7A8
S31500002170ABFC01E0FFF736FC009A0AB181F00041A2
S31500002180019AC2E90001D1E72DE9FF4F1F468DB044
S31500002190D7E901464FF0FF382E2045464FF000099B
S315000021A00B90B9696D1C0E988847396A8246884734
S315000021B00028F6D1BAF1FF3F0AD024F4D064002EED
S315000021C011DDBAF12B0F08D0BAF12D0F0BD102E0B9
S315000021D0404611B0ABE744F48064B9696D1C0E98B3
S315000021E088478246761E6946600501D52D2000E0A7
S315000021F02B208DF8000001F1010B0DF1200809E0FC
S31500002200B9696D1C0E98884782460F9844F400748D
S31500002210761E0560002E02DDBAF1300FF0D00B9964
S315000022208A453ED144F0800406E00F99681CA9F166
S31500002230010944F400740860B9696D1C761E0E9895
S31500002240884782463028F0D02BE00B998A4505D185
S31500002250200603D444F08004761E18E0504626F08B
S31500002260A1FE08B30DF11301761E44F400748B45EC
S3150000227008D2AAF130000BF8010B200607D5A9F108
S31500002280010003E0200602D409F101008146A00501
S3150000229002D50F99681C0860B9696D1C0E988847AD
S315000022A08246002ED1DC53E0002E51DDBAF1650FD7
S315000022B002D0BAF1450F4BD1A00549D5B9696D1CBD
S315000022C024F44074761E0E9888478246002E0CDD54
S315000022D02B2804D0BAF12D0F07D144F48074B969C4
S315000022E06D1C0E9888478246761EE00501D52D2185
S315000022F000E02B2108F8011BCDF82C8021E00DF120
S315000023002901761E44F4007488450CD2AAF13000E7
S3150000231010F0FF0088F8000002D10B99884509D912
S3150000232008F1010806E0E00501D5244801E042F283
S315000023300F708146B9696D1C0E98884782460F98C2
S315000023400560002E04DD504626F02CFE0028D6D16E
S31500002350F9690E988847FF208BF8000088F800007E
S315000023600020069007904B466A4608A906A8FFF784
S315000023708BFEA00502D46FF001002AE714F0240FAB
S315000023800AD0E00714D1DDE906123868031D3B6068
S315000023900068C0E900120BE0DDE90601FFF737FE31
S315000023A00146E00704D13868021D3A600068016002
S315000023B028460EE7000024400000F03FF1D8FFFF5A
S315000023C0426842B1016811F8013B23B1521EC0E9CF
S315000023D00012184670470121C160881E7047426886
S315000023E05AB1C368016843B983688B4205D0491E58
S315000023F0521CC0E90012002070474FF0FF307047B2
S315000024000029A8BF7047401C490008BF20F0010002
S31500002410704710B4B0FA80FC00FA0CF050EA0104E0
S3150000242004BF10BC704749B1CCF1200421FA04F472
S3150000243011FA0CF118BF012121430843A3EB0C014B
S31500002440CB1D4FEA00614FEA102042BF002010BCAE
S31500002450704700EBC35010440029A4BF10BC70475E
S31500002460401C490008BF20F0010010BC704770B541
S315000024708C1810F8015B15F0070301D110F8013B29
S315000024802A1106D110F8012B03E010F8016B01F8B0
S31500002490016B5B1EF9D12B0705D40023521E0DD408
S315000024A001F8013BFAE710F8013BCB1A921C03E056
S315000024B013F8015B01F8015B521EF9D5A142D8D38E
S315000024C0002070BD002801DD4BF058B80020704791
S315000024D0002801D034F06CB8704700207047000027
S315000024E001490968084700000005400070B50C4620
S315000024F00546032216A123F08BFBE41E68B10322D6
S3150000250014A1284623F084FB68B1032212A12846B1
S3150000251023F07EFBB0B1012010E0A1B2E81CBDE8BB
S31500002520704018F08FBD2104090C4FF0030005D14F
S315000025300A490120087022F0E5F90020BDE8704044
S3150000254019F020BAA1B2E81CBDE8704018F0BEBC74
S31500002550646267006163740063746C00E885400020
S31500002560BFF34F8FBFF36F8F7047BFF34F8FBFF32C
S315000025706F8FFEE770B51248006880470446014633
S3150000258010A025F019FF134D032C0DD003DC5CB110
S31500002590022C04D108E00A2C06D00B2C09D00EA080
S315000025A025F00AFFE86808E0BDE870400FA025F0B6
S315000025B003BF13A025F000FFA868BDE870400047E0
S315000025C0300640000A426F6F744D6F6465202564C3
S315000025D020000000A8044000676F20746F20646527
S315000025E06661756C7420706174680A00676F207488
S315000025F06F206E6F726D616C20706174680A0000E6
S31500002600676F20746F205246207465737420706162
S3150000261074680A00F8B50024094F0D460646009472
S315000026203A680121684690470098B04201D10120DE
S31500002630F8BD2046641CA842F2D30020F8BD000075
S315000026400007400038B50020009017480068804712
S315000026500B2818D0154C16A000F052F93221FE2096
S31500002660FFF7D8FF78B122680121684690470098A5
S31500002670312812D0322814D0702809D0752804D0F9
S315000026800DA000F03DF9002038BD66F0DFFC02E049
S31500002690002000F0EBF9012038BD012000F0E6F93A
S315000026A0F1E700F019F8D6E73006400000074000D1
S315000026B03C434845434B3E003C4553434150453E11
S315000026C00000000010B504F0DBFB082801D0002054
S315000026D010BD012010BD70477CB50024009417A0E2
S315000026E0019400F00DF90421684600F0F6F8042183
S315000026F001A800F0F2F8009800F094F90090019813
S3150000270000F090F9024601900EA0009925F054FEC3
S31500002710154D164E0DE000982A68011900209047C5
S3150000272018B113A000F0ECF87CBD3168782088471A
S31500002730641C01988442EED30FA0F3E73C53544146
S3150000274052543E00457261736520466C6173682081
S31500002750536563746F722025642C20636F756E74E5
S315000027602025640D0A000000B0064000F406400073
S315000027703C4E41434B3E00003C41434B3E00000073
S3150000278010B503460022104602E09C5C521C204411
S315000027908A42FAD310BD10B525F098FABDE810406C
S315000027A04AF0CEBE09480849016009494160094915
S315000027B081600949C16009490161094941610949C5
S315000027C081610949C1617047DB2B0000A804400004
S315000027D075250000D12800006B250000612500004A
S315000027E0A92800006928000097270000704710B547
S315000027F025F0A2FA03F05EF8FFF7D4FF23F074F990
S3150000280005F0F6F92BF09EF825F018FC41F082FA57
S3150000281017F020FB45F0F8FF78F04EF928F0CCFFD2
S3150000282057F028FF02F09AFA04F052FE04F074FA08
S3150000283005F050F803F070FD02F002FD05F004F912
S3150000284002F0ECFA04F090FC03F020FC02F0B8FD74
S3150000285052F09EFD05F024FB55F084FF05F078F953
S31500002860BDE810402FF012B910B502F071FABDE8BC
S31500002870104002F0DDBC0000094A10B5126840F2B3
S3150000288029310320904700F0ADF9064800688047DB
S3150000289000F0D6F800F070F8BDE8104002F0F8BF7E
S315000028A044064000E805400008B5074A00200090AD
S315000028B01268694690470098044A40F00801009162
S315000028C012680020904708BD4006400044064000BC
S315000028D0BFF34F8FBFF36F8FFEE7F8B500240D46A9
S315000028E00646009408E0684602F0AAF908B10120FD
S315000028F0F8BD00983055641CAC42F4D30020F8BDF6
S3150000290070B506460024FEF7B4FE054606E0305DC7
S3150000291002F0DCF908B1012070BD641CAC42F6D3AC
S31500002920002070BD10B5FFF7CDFE114C20B1A06997
S315000029308047206880470EE0FFF759FFFFF79CFFAE
S31500002940FFF780FE38B90B4900200968884701283F
S3150000295001D100F02BF8206980476069804702F0BA
S31500002960D3FE05F04DFB6068BDE81040004700004F
S31500002970A8044000C40640003EB5012207210020FD
S315000029808DE80700074C0346024624680449A04721
S3150000299005490020096803B0BDE83040084700003B
S315000029A0C0D8A700D0064000A8064000F0B5C1B0C8
S315000029B04FF48077002439466846FEF71BFE0D4D1E
S315000029C04FF4C46621020122D5F800C06B460020F0
S315000029D0E0473946684602F0F5FE0246012802D174
S315000029E0641CB442EED3214603A025F0E5FC41B0B9
S315000029F0F0BD0000BC0640000A535049206C6F61D0
S31500002A00642070617463682C206C61737420696E35
S31500002A1064657820256420726573756C742025645E
S31500002A200A00000000F47F410A0210B54FF47F410E
S31500002A3001EA102142EA00640C4344EA106010BD2A
S31500002A40064810B5006880470B2806D004494FF4A5
S31500002A50E1300968BDE81040084710BD3006400067
S31500002A60EC064000002000F001B8000070B5C6B0CA
S31500002A7000240546459426464FF4807168464094E6
S31500002A80FEF7B8FD449641AE33A0FFF739FF0C219F
S31500002A9041A8FFF722FF002847D1082230A130467F
S31500002AA0FEF712FE10B1314630A04EE04398FFF714
S31500002AB0B9FF439033A0FFF723FF33E0042145A875
S31500002AC0FFF70BFF042140A8FFF707FF4598FFF724
S31500002AD0A9FF45904098FFF7A5FF411EFF294090AA
S31500002AE0014631D86846FFF7F8FE042144A8FFF7EF
S31500002AF0F4FE4498FFF796FF449068464099FFF726
S31500002B003FFE02464498824218D185B11F4E0122EB
S31500002B106B46366800204599B047C0B919A0FFF743
S31500002B20EFFE641C4398A042C8D846B070BD684604
S31500002B30409902F047FE0028F0D108E0014614A0B3
S31500002B40409B25F039FC02E01AA025F035FC1FA0B9
S31500002B50FFF7D6FEE9E700003C53544152543E00CD
S31500002B606E65746C696E6B6300000000496E766179
S31500002B706C696420646174612068656164202573F2
S31500002B800D0A00003C41434B3E000000B4064000E5
S31500002B90496E76616C696420636865636B73756DF5
S31500002BA02025582025582073697A652025640D0A4A
S31500002BB000000000496E76616C696420646174618E
S31500002BC0206C656E74682025580D0A003C4E414302
S31500002BD04B3E00000120FFF749BFBFF34F8FBFF305
S31500002BE06F8F704770B50D48006880470B2814D06A
S31500002BF00B4E04F091FAFEF7FEFF00223346FEF775
S31500002C00F1FE04460D46002004F05EFAFEF7F3FFDF
S31500002C1022462B46FFF740F8EBD370BD3006400046
S31500002C2000001E400149496B08470000D4204000BF
S31500002C3000687047014B5B6A18470000D4204000CB
S31500002C4030B505E0036811F8015B5C1C04601D707B
S31500002C50521E92B2F6D230BD2DE9FF41804625487C
S31500002C60254B0D4641681B68002201A8984701982C
S31500002C70102803D0012004B0BDE8F0811F4E029C4D
S31500002C807CB94FF48E700090042137681C4B1DA24E
S31500002C900020B84704213768234622A20020B847FF
S31500002CA001BE207802281CD004281ED004213768D3
S31500002CB0234620A20020B84740F22D1000900421A0
S31500002CC036680F4B28A20020B04701BE2146404679
S31500002CD02A68FEF767FC2A492046096888470020CB
S31500002CE0C9E7B4F80300401D01E0A078C01C2860C5
S31500002CF0ECE700009C0740004C054000D00940006E
S31500002D00B3BB0700706F696E7465722069732061CA
S31500002D10626E6F726D616C2C2025732C2025640DFC
S31500002D200A00000061646472203D20253038580D89
S31500002D300A000000464154414C3A20696E636F72A6
S31500002D40726563742068636920696E64696361747F
S31500002D506F722C206275665F616464723A2025305A
S31500002D6038580D0A0000000061737365727420669E
S31500002D7061696C2C2025732C2025640D0A00000047
S31500002D80600540002DE9F843364E904607468946D1
S31500002D9002282CD03046042FD0F800C014D00421CD
S31500002DA03B4631A20020E047992000900421346878
S31500002DB0374B38A20020A04701BE3C492846096887
S31500002DC08847040015D025E00C000DD18C20042185
S31500002DD000902F4B36A20020E04704213568234699
S31500002DE03BA20020A84701BE65782D1DE5E7022518
S31500002DF0E3E79E2000900421D6F800C0244B2CA2C5
S31500002E000020E0470421D6F800C0234630A2002067
S31500002E10E04701BE032020706770022D06DD2A46BA
S31500002E204946A01CFEF7BEFB002100E001212D4B08
S31500002E30C8F800102A481B680022214600689847F7
S31500002E4000280DD00421336827A200209847B5201A
S31500002E500090042134680E4B0EA20020A04701BE4C
S31500002E60BDE8F883D0094000464154414C3A2069F8
S31500002E706E636F726563742068636920696E646946
S31500002E806361746F723A20253032580D0A000000D3
S31500002E9074BB0700617373657274206661696C2C7C
S31500002EA02025732C2025640D0A0000005C054000D7
S31500002EB0706F696E7465722069732061626E6F72DD
S31500002EC06D616C2C2025732C2025640D0A000000F2
S31500002ED061646472203D20253038580D0A000000D8
S31500002EE09C07400048054000464154414C3A206347
S31500002EF074726C207461736B2071756575652066DC
S31500002F00756C6C0D0A0000002DE9F84306463C4836
S31500002F1088463C4990F82C293B4809683378006874
S31500002F203A4DAAB1012B02D0022B23D10AE0002090
S31500002F308847F8B1364B0022B6F801001B683A21E3
S31500002F4098475AE08047A8B932480068804754E05D
S31500002F50012B17D0022B1AD004212C682EA2002098
S31500002F60A047F120009004212C68354B35A20020A3
S31500002F70A04701BE394908F10100096888470400E5
S31500002F8009D017E000208847002836D1F2E78047AD
S31500002F90002832D0EEE7FA20009004212F68284B53
S31500002FA02FA20020B84704212F68234634A2002010
S31500002FB0B84701BE0220207042463146601CFEF72B
S31500002FC0F1FA344B324800221B68214600689847C4
S31500002FD0002813D0304920460968884704212B6809
S31500002FE02EA20020984740F20910009004212C6878
S31500002FF0134B14A20020A04701BE0120BDE8F883B0
S31500003000006C40003C08400000694000D0094000C8
S315000030105469400060694000464154414C3A206979
S315000030206E636F726563742068636920696E646994
S315000030306361746F723A20253032580D0A00000021
S3150000304097BB0700617373657274206661696C2CA7
S315000030502025732C2025640D0A0000005C05400025
S31500003060706F696E7465722069732061626E6F722B
S315000030706D616C2C2025732C2025640D0A00000040
S3150000308061646472203D20253038580D0A00000026
S315000030909C074000480540006005400046415441F9
S315000030A04C3A206374726C207461736B2071756581
S315000030B075652069732066756C6C0D0A000000004A
S315000030C070B50F490546092009688847040014D0E1
S315000030D0002020702868C4F801006868C4F805005C
S315000030E0094B084800221B682146006898470028BB
S315000030F004D00649204609688847012070BD0000B3
S315000031005C0540009C074000480540006005400003
S3150000311070B50F490546092009688847040014D090
S31500003120012020702868C4F801006868C4F805000A
S31500003130094B084800221B6821460068984700286A
S3150000314004D00649204609688847012070BD000062
S315000031505C0540009C0740004805400060054000B3
S315000031602DE9F05F01264FF000098A468346B046F6
S315000031704D464C46B71E28E0FEF7EEF901681BF8EF
S315000031800500095C202917D02E2807D02D280DD040
S315000031900026002C18DD4FF0010915E0641C022CF6
S315000031A002DABAF1000FF4D1002613E0B8F1000FED
S315000031B0FAD04FF00008ECE7B9F1000F00D07F1C01
S315000031C05745F1DA4FF000086D1C5846FEF751FAE4
S315000031D0A842D1D83046BDE8F09F000070B50E4633
S315000031E000252C4607A1FEF77FFA30B105A1002085
S315000031F0FEF77AFA08B1641CF8E7B44200D101255B
S31500003200284670BD2C00000070B50C4605462CA162
S3150000321033F0B2F928B121462846BDE8704022F0C5
S315000032201FBE28A1284633F0A7F9274C10B128461F
S31500003230A16A41E025A1284633F09EF910B128463F
S31500003240E16A39E023A1284633F096F910B1284601
S31500003250216B31E021A1284633F08EF910B12846C2
S31500003260616B29E01FA1284633F086F910B1284684
S31500003270A16B21E01CA1284633F07EF910B1284647
S31500003280E16B19E019A1284633F076F910B128460A
S31500003290216C11E017A1284633F06EF910B12846CB
S315000032A0616C09E014A1284633F066F90028284627
S315000032B001D0A16C00E0E16CBDE870400847000059
S315000032C06C656800777061000C0940006C77697066
S315000032D00000000070696E6700000000776966698B
S315000032E000000000706D70006970630074726163A5
S315000032F0657200007379730069706572660000007C
S315000033002DE9F0474FF0000590460F46B0F1000951
S315000033102E462C4616D0AA46B8F1000F48460CD0C9
S31500003320FEF7A7F90C280CD14046FEF7A2F90128B2
S3150000333007D187F800A00C2029E0FEF79AF911289A
S3150000334002D00020BDE8F08787F800A011201EE01B
S31500003350B8F1000F0FD0022D06D1844204D098F8A0
S315000033600010B955002504E019F80410641CB9557D
S315000033706D1C761C0BE0022D03D1844201D0002582
S3150000338004E019F80410B9556D1C761C641C8442BF
S31500003390DED90120D6E700000148806C0047000016
S315000033A05C044000BFF34F8FBFF36F8F7047000080
S315000033B0014A126B10470000D42040000268531CDB
S315000033C0036011700B0A01684A1C02600B7070479B
S315000033D02DE9F041060015D0002501E0402D03D06F
S315000033E0705D6D1C0028F9D10A4F002404EB84009F
S315000033F007EB80002A4641683046FEF74FF920B1B8
S31500003400641CF3D00020BDE8F08104EB840007EBD8
S315000034108000F8E774CB070080684058704770B5A5
S31500003420064680684518002407E029463046FFF71F
S31500003430F3FF42F82400641C2D1D9C42F5DB70BD91
S31500003440704700BA704780684250704770B584680C
S315000034500C44002105E0866852F821503551491C7C
S31500003460241D9942F7DB70BDF0B53D4C002506469C
S31500003470236887B031A2042128469847304600F0D9
S3150000348055FB83B2A3F5FA4082380BD0A3F5E6408C
S315000034908C3807D004212468324A0020A047681ED1
S315000034A007B0F0BD304600F03DFB0346800505D46D
S315000034B0042124682C4A0020A0471BE0304600F077
S315000034C029FB0346C00205D404212768274A0020A9
S315000034D0B84711E0580206D40421236824A200202C
S315000034E09847012508E0180206D5042123682FA273
S315000034F0002098470220D3E7002004A9CDE9001058
S31500003500029003AB06AA05A9304600F0E1F89DF843
S3150000351014009DF8181088420DD09DF80C009DF8F7
S315000035201010884207D00421236830A20020984753
S315000035306FF00100B4E72846B2E700005B736563ED
S3150000354075726974795D204549503133305F46693B
S31500003550726D77617265436865636B200D0A0000C2
S31500003560D00940008474090030740900D874090039
S315000035705B73656375726974795D204549503133B3
S31500003580305F4669726D77617265436865636B2C5F
S31500003590206669726D776172652073746174652047
S315000035A069732062757379200D0A00005B73656389
S315000035B075726974795D204549503133305F4669CB
S315000035C0726D77617265436865636B2C20666972FC
S315000035D06D7761726520737461746520697320610B
S315000035E063636570746564200D0A00005B73656330
S315000035F075726974795D204549503133305F46698B
S31500003600726D77617265436865636B2C204D7948EE
S315000036106F7374494420213D204D6173746572496E
S3150000362044200D0A000000002DE9F0411C46154615
S315000036300E46074600F05EFAF2000146083A0120FF
S315000036402A44002A00DD90400CB1814300E001438A
S31500003650384600F074FA0020BDE8F08170B50C46DB
S31500003660054600F063FA82B2A2F5FA40823806D027
S31500003670A2F5E6408C3802D04FF0FF3070BD2846E8
S3150000368000F04CFA00F00F00A04202D26FF00100E9
S3150000369070BD002070BD10B50C4600F037FAA200D0
S315000036A00221121F9140014201D0012010BD0020CD
S315000036B010BD10B50C4600F029FAA2000121121F18
S315000036C09140014201D1012010BD002010BD000033
S315000036D02DE9F0470E4608A91C4691E80007154655
S315000036E000F01CFA034616B1C3F30250307014B151
S315000036F0C3F3C050207015B1C3F302402870B8F16F
S31500003700000F03D0C3F3C04188F80010B9F1000FD1
S3150000371003D003F00F0189F80010BAF1000F05D0AD
S31500003720C3F3011180208840AAF80000254F042128
S3150000373017A2D7F800C00020E047337804213E687E
S3150000374021A20020B047237804213C682CA2002047
S31500003750A04704213C682B7837A20020A04704210B
S315000037603C6898F8003042A20020A04704213C683B
S3150000377099F800304DA20020A0473C68BAF8003006
S31500003780A446BDE8F047042157A200206047000088
S315000037905B73656375726974795D20454950313391
S315000037A0305F4D61696C626F784765744F707469FC
S315000037B06F6E732C2056616C75653A2564200D0A70
S315000037C000000000D00940005B7365637572697480
S315000037D0795D204549503133305F4D61696C626FC8
S315000037E0784765744F7074696F6E732C202A4D7913
S315000037F0486F737449445F703A2564200D0A0000CF
S315000038005B73656375726974795D20454950313320
S31500003810305F4D61696C626F784765744F7074698B
S315000038206F6E732C202A4D7950726F745F70203A38
S315000038302564200D0A0000005B7365637572697468
S31500003840795D204549503133305F4D61696C626F57
S31500003850784765744F7074696F6E732C202A4D61BA
S315000038607374657249445F703A2564200D0A00003E
S315000038705B73656375726974795D204549503133B0
S31500003880305F4D61696C626F784765744F7074691B
S315000038906F6E732C202A50726F74417661696C6169
S315000038A0626C655F703A2564200D0A005B73656380
S315000038B075726974795D204549503133305F4D61C9
S315000038C0696C626F784765744F7074696F6E732C9C
S315000038D0202A4E724F664D61696C626F7865735F20
S315000038E0703A2564200D0A005B736563757269740E
S315000038F0795D204549503133305F4D61696C626FA7
S31500003900784765744F7074696F6E732C202A4D6109
S31500003910696C626F7853697A655F703A2564200D29
S315000039200A00000070B5054688000424001F844084
S315000039302146284600F0FEF8284600F0E7F88443C2
S3150000394002D06FF0010070BD002070BD70B5054655
S3150000395088000824001F84402146284600F0F4F819
S31500003960284600F0D3F8844302D06FF0010070BD02
S31500003970002070BD70B516460C460546FFF78BFE57
S3150000398090B1002000EB8421402332462846A1F561
S315000039908061FFF744FDA0000221001F81402846F8
S315000039A000F0C8F8002070BD6FF0020070BD70B561
S315000039B0054688000824001F84402146284600F05A
S315000039C0B9F86408284600F0A1F8204001D06FF04D
S315000039D0010070BD70B516460C460546FFF769FE38
S315000039E028B3002000EB8421402332462846A1F567
S315000039F08061FFF72BFDA0000124001F84402146B3
S31500003A00284600F097F8284600F080F8204211D1A9
S31500003A10284600F08BF880B2A0F5FA41823909D029
S31500003A20A0F5E6418C3905D06FF0030070BD6FF04C
S31500003A30020070BD002070BD2DE9F0411C46154600
S31500003A400E46069F00F06EF816B1C0F340213170A5
S31500003A5015B1C0F30031297014B100F03F01217097
S31500003A60002F03D0010C802088403880BDE8F0810B
S31500003A702DE9F05F1D46DDE90CA7DDE90A8916464A
S31500003A800C46DDF838B000F045F834B1810702D4B1
S31500003A9000F0010100E0002121700EB1C10F31706C
S31500003AA015B1C0F340212970B8F1000F03D0C0F35F
S31500003AB0002288F80020B9F1000F03D0C0F380225D
S31500003AC089F80020BAF1000F03D0C0F300528AF83B
S31500003AD0002017B1C0F380513970BBF1000F03D03D
S31500003AE0C0F3C0518BF80010BDE8F09F43F6087193
S31500003AF0FFF792BC43F61071FFF78EBC43F60C71CC
S31500003B00FFF78ABC43F60471FFF786BC4FF47C517D
S31500003B10FFF782BC43F6E071FFF77EBC43F6F8710F
S31500003B20FFF77ABC43F6F471FFF776BC43F6FC71F7
S31500003B30FFF772BC0A464FF47C51FFF784BC0A4675
S31500003B4043F61071FFF77FBC0A4643F60471FFF790
S31500003B507ABC0A4643F6E071FFF775BC40306BF05D
S31500003B60ABBA00002DE9F0410D4600F14001A8B0C6
S31500003B7004460E4668466BF0BBFB05F140018846DD
S31500003B8010A86BF0B5FB10AA214618A86BF09EFB97
S31500003B906A46294608A86BF099FB10AA04F1200191
S31500003BA00F4610466BF092FB10A9424608466BF092
S31500003BB08DFB6A4605F1200110466BF087FB6946CE
S31500003BC0324608466BF082FB08A9314B18AA084614
S31500003BD06BF0A0FB69462E4B10AA08466BF09AFBC9
S31500003BE008A86BF069FA68B168466BF065FA28B107
S31500003BF0204600F04FF828B0BDE8F08130466BF063
S31500003C0018FAF8E73146424608466BF05FFB314644
S31500003C1008AA08466BF05AFB08A920A86BF068FBB7
S31500003C2008AA20A910466BF051FB18A920AA08463D
S31500003C306BF04CFB694620466BF05AFB2146144B51
S31500003C4008AA08466BF066FB2146114B18AA0846DF
S31500003C506BF060FB21460E4B18AA08466BF05AFB28
S31500003C6008AA10A920A86BF031FB094B224618A917
S31500003C7038466BF04FFB39466A4608466BF026FB22
S31500003C803946034B20AA08466BF044FBB3E7000015
S31500003C90A88C400070B500F1400198B004460D466E
S31500003CA008A86BF025FB3C4B08AA214610A86BF030
S31500003CB031FB394B08AA214668466BF08CFA10A9ED
S31500003CC06A4608466BF002FB10AA334B114668465B
S31500003CD06BF081FA10AA304B694610466BF07BFAFE
S31500003CE004F120010E4608A86BF002FB08AA214643
S31500003CF068466BF0EBFA6A461146274B08466BF0AE
S31500003D006AFA6A461146244B08466BF064FA2A465C
S31500003D10314610466BF0DAFA2A4611461E4B084623
S31500003D206BF059FA10A920466BF0E2FA21461A4BBD
S31500003D306A4608466BF0EEFA2146174B6A46084675
S31500003D406BF0E8FA08A930466BF0D2FA3246114613
S31500003D50114B08466BF03FFA324611460E4B0846A9
S31500003D606BF039FA324611460B4B08466BF033FAC4
S31500003D70094B2246694608A86BF0CCFA08A910AA96
S31500003D8008466BF0A3FA3246034B08A910466BF0BF
S31500003D90C1FA18B070BD0000A88C400070B50D4681
S31500003DA004466BF005FB05F1200104F120006BF0E1
S31500003DB0FFFA04F140006BF03CF90120206470BD6D
S31500003DC010B504466BF078F930B104F120006BF0C1
S31500003DD073F908B1012010BD002010BD2DE9F04F88
S31500003DE0B1B016460C460546FFF7D8FF214618A87F
S31500003DF0FFF7D4FF202400203246072352F8231071
S31500003E00014300D0012108445B1EF7D506EB800173
S31500003E1051F8042C0021EAB30023E41A5208491C85
S31500003E202029F8D3400120380444A41E3AD410A80F
S31500003E304FF0010805F1400B0DF1200905F1200AAC
S31500003E4030902846FFF726FF684629466BF0B0FA01
S31500003E50514648466BF0ACFA594630986BF0A8FAD2
S31500003E6018A96846FFF77EFE600904F01F0156F8A0
S31500003E70207008FA01F007402A463B46694610467C
S31500003E806BF003F952463B46494610466BF0FDF887
S31500003E903B4600E009E05A46104630996BF0F5F8CB
S31500003EA0641ECED531B0BDE8F08F0123B5E7000022
S31500003EB0F0B5064601F1400089B00D4607466BF0A5
S31500003EC0FBF806F1200438B130466BF0B2F8204614
S31500003ED06BF0AFF809B0F0BD394668466BF068FA8A
S31500003EE00D4B6946A3F1200208466BF0C7F96946F7
S31500003EF030466BF0FDF96A46314620466BF0E6F92E
S31500003F0031462A4608466BF0E1F9214605F12002C2
S31500003F1008466BF0DBF9DDE7C88C40004FF0006324
S31500003F200360C0E902127047F0B404AE00F10C075A
S31500003F3096E838004FF0C05606608160C5F3090167
S31500003F4087E81A00F0BC1023062100F0F9BB10B573
S31500003F504FF0B85402990460C1F309018260C0E9C8
S31500003F60033110BD4FF05C520260816070474FF024
S31500003F701C53036081604FF08051C16000210161D4
S31500003F80426241617047000030B54FF01C55039CFA
S31500003F90056081604FF08071C1600BB10649C16058
S31500003FA014B141F40041C1600021016141618161A8
S31500003FB0C161C0E9081230BD00400001C26842F08C
S31500003FC00042C260416270474FF01C53036081603B
S31500003FD04FF08061C160002101614262416170471A
S31500003FE04FF01C52026081604FF00061C1600021F9
S31500003FF0016141618161C161016270474FF01C52EC
S31500004000026081604FF00071C16000218161C16171
S3150000401001627047C36843EA0243C36013460A4617
S315000040200A2100F08DBB10B550F80C1F029CC4F39A
S315000040300904214380E80E0010BD00998261C1F396
S315000040400901C0E9073170474FF0E0628906890A25
S3150000405002600161704700214FF0AA3240F821202A
S31500004060491C4029FAD370474FF0385341EA0241C0
S315000040700360816070470022102904D0182904D0FB
S31500004080202905D103E0012202E0022200E00322FA
S31500004090C16A41EA0241C162704713460A461A21C3
S315000040A000F04EBB10230A460D2100F049BB134613
S315000040B00A46112100F044BB30B4C36A02F00F0473
S315000040C043EA0453C36213460A4630BC1D2100F07E
S315000040D037BB30B41346C26A03F01F0442EA0462D7
S315000040E0C262120404D40A4630BC212100F028BB67
S315000040F030BC704730B54FF08075039C02F00F025C
S31500004100056062F31F118460C162002B02D041F486
S315000041100041C16230BD00994166C0E9092370477C
S31500004120C26A42F40072C26241637047C26A42F4D4
S315000041308072C26241647047C26A42F48052C0E92A
S315000041400B21704770B50DF1180C049E9CE83200E7
S3150000415000F1180C0C308CE8320080E84C0070BD81
S31500004160C26A42EA4131C1627047F0B505AF01F05B
S315000041700F0197E870004FF0007707600561C0E90E
S315000041800264C0E9056112B941F010018161002B9A
S3150000419002D141F020018161F0BD13460A46082193
S315000041A000F0CEBAC1617047C0E91823704741607C
S315000041B070472DE9F04115460A46074600F06DF8AE
S315000041C0002825D0F968E020C1F30746E02D00D984
S315000041D005467019E02801D9C5F1E00607F120006F
S315000041E04119340008D0031901EB040C13F8013C03
S315000041F00CF8013C641EF6D12B460A21384600F025
S315000042009FFAF868711920F47F0040EA0140F860CF
S31500004210BDE8F081F0B54FF04077DDE90664059D15
S3150000422040F8087B01F00F0180E87000E41C0838B4
S3150000423024F00304C0E9054112B941F0100181617F
S31500004240002B02D141F020018161F0BD30B48369B9
S3150000425002F07F0443EA0443836113460A4630BCF6
S31500004260122100F06DBA13460A46082100F068BA1A
S31500004270836902F07F0243EA024242F4807282615D
S3150000428081647047826942F40072826101627047FC
S31500004290C1617047C0E9102370470168C1F3056129
S315000042A0272904D1C068C00101D50120704700202C
S315000042B07047F0B507AF059997E87000002740F8FA
S315000042C0087B0EC080E87200F0BD2DE9F0419446EF
S315000042D01E00DDE909230DF118084FF0EE4E98E8AF
S315000042E0B00001F01F010CF01F0C41EA0C41C0F8B0
S315000042F000E0816002D041F000418160C7F309010E
S31500004300C3F3090641EA064100F10C0686E83200CD
S31500004310BDE8F041062100F013BA4FF0CE4202602C
S315000043208160704730B54FF0AE45039C0560C0E92B
S315000043300214C0E9042330BD4FF09C410160704770
S315000043404FF0BC41016070474FF0A051016002215F
S31500004350816070472DE9F04F4FF0C856DDE90D54E6
S31500004360DDE9117CDDE90A89DDF830E0DDF83CB0F5
S31500004370DDF824A040F8086B41EA024141EA0361F6
S3150000438002C04FEA0A21A0E802431399CBF30B02BD
S31500004390C1F30B0142EA0141E0E8021580E8901002
S315000043A0BDE8F08F30B41346C2680C46D11C01F04C
S315000043B0FC0122F0FF02CD182A43C2600C2202EB58
S315000043C09101224630BC00F0BBB910B54FF0106425
S315000043D00460032404EB032343EA014141EA02613A
S315000043E0816010BD30B54FF01065039C40F8085B46
S315000043F001F00F01012505EB016140F80C1BC4F328
S315000044000B0180E80E0030BDF0B509AEDDE90553BD
S3150000441096E890104FF01066DDF81CE040F8086B47
S3150000442001F01F01E0E80312CEF30B01CCF30B02FF
S3150000443041EA0241E0E8021580E89800F0BD4FF03D
S31500004440106101600321816070472DE9F05F1E460F
S31500004450DDE90A8BDDE911E3DDE90F74DDE90D9590
S315000044604FF0174CDDF830A001F01F0141EA08219A
S31500004470C0F800C0816012B141F4803101E041F41E
S315000044800031816016B141F0804181600AF00F026F
S3150000449049EA022242EA0B41C160002C12D081682F
S315000044A0DAB241F000418160C4F3090141EA0241F8
S315000044B000F11006724686E8A200BDE8F05F07210B
S315000044C000F03EB9BDE8F09F30B54FF08E45039C35
S315000044D00560C0E90214C0E9042330BD10B54FF0F1
S315000044E0806440F8084B80E80E0010BD4FF0606213
S315000044F002600122C0E9022170474FF0F0530360C9
S31500004500012383600023C360C0E90412704710B51D
S315000045104FF007440460816003F00301C160002A84
S3150000452002D041F40041C16010BD4FF0205303603A
S3150000453081600AB1190100E00021C16070470000E6
S3150000454010B5054C036823400B430360002A02D0D4
S3150000455043F48021016010BD0000FBFF30B54FF031
S315000045607C55039C40F8085B80E81E0030BD10B502
S315000045704FF0DE41029C01604FF00841C16000210E
S3150000458000F1140C01618CE80E00C4F30A0101620B
S3150000459010BD30B41C46029B42628160C16822464F
S315000045A041EA0341C16030BC0A2100F0C9B84FF0AE
S315000045B07061016070474FF03C510160704710B563
S315000045C04FF0FE44029940F80C4BC1F3090141F04B
S315000045D080610EC0002140F81819C161016210BD4A
S315000045E04FF0BE41016070474FF0F85101607047CF
S315000045F04FF09E410160704730B54FF0A055039CC7
S315000046000560012505EB01218160110403F00F020D
S3150000461041EA02212143C16030BD2DE9F04F9346A6
S315000046209E46DDE90914DDE90B32DDE91195DDE988
S315000046300F76DDE90DCA4FF0505840F8088B44EA72
S315000046400C0880E8024858EA0608A0F108000CD0D9
S3150000465041F000518160310509090CF03F0641EA3D
S31500004660062104F03F042143416143EA0A0151EA6D
S3150000467009010ED0816803F03F0341F0804181605B
S315000046804FEA09510C090AF03F0144EA0121194396
S31500004690816142EA0701294308D0816841F000415F
S315000046A08160290441EA07211143C161BDE8F08F09
S315000046B0F0B50DF1140C09079CE8F0004FF0105C02
S315000046C0C2F30B0240F808CB41EA0241194380E8E5
S315000046D0F200F0BDF0B54FF0C067DDE90745059E75
S315000046E000F10C0CC6F30A06076086608CE83C00F5
S315000046F011B14FF4004100E00021C161F0BD134645
S31500004700C26922F48072C2610A46082100F018B814
S31500004710C26942F48072C0E907217047002210295D
S3150000472004D0182904D0202905D103E0012202E093
S31500004730022200E00322C16941EA0241C1617047D9
S3150000474030B5D41800281DD0002A1BD018E0402907
S3150000475018D212F8013BA2420FD212F8015BA24214
S3150000476043EA052309D212F8015BA24243EA054354
S3150000477003D212F8015B43EA056340F82130491C75
S31500004780A242E4D330BD4FF07851016070470B462A
S315000047901022022100F04AB84068086070478088FD
S315000047A0C0F309000860704743680B60002A03D015
S315000047B00089C0F30900106070470068000E01060A
S315000047C002D500F07F00404270470B4610220221BE
S315000047D000F02CB80B461022062100F027B813462D
S315000047E00A46022100F022B813460A46022100F0CA
S315000047F01DB88088C0F30900086070478088C0F340
S315000048000900086070478088C0F309000860704797
S315000048100068000E06D0010603D4C0F34111022938
S3150000482001D04042704700F01F00704710B51A448F
S3150000483000281AD0002B18D015E0402915D250F8C0
S31500004840214003F8014B491C93420CD2240A03F879
S31500004850014B934207D2240A03F8014B934202D23A
S31500004860240A03F8014B9342E7D310BD4068086061
S31500004870704709B143680B60002A01D08068106058
S3150000488070478088C0F309000860704770B50C4611
S31500004890054618212046FCF7ADFE6868010CA1719B
S315000048A0010AE1712072002801DA01206072A8680D
S315000048B0010C2170010A6170A070A889A080E868C7
S315000048C0C0F30340207328692061A88AC0F303302F
S315000048D02075A88AC0F30B00E08270BD2DE9F04F69
S315000048E009AC94E8E01F047904F03F040C70017AE7
S315000048F001F03F011170017B19708188C1F3052118
S3150000490029700189C1F3052232708189090A39703B
S31500004910C168C1F3807188F800104168C1F30B418A
S31500004920A9F800108168C1F30B42AAF80020C168FB
S31500004930090C8BF80010C068C10F8CF80010BDE898
S31500004940F08F8088C0F30A00086070470149096942
S3150000495008470000D42040000149096808470000C4
S315000049606005400001480069004700005C04400003
S315000049702DE9F0471348002400688047DFF8488097
S31500004980DFF84890DFF848A00646012707FA04F545
S3150000499035420CD0D8F8001020468847D9F80000D8
S315000049A08047284303D0DAF8001010208847641C9B
S315000049B0E4B21F2CEAD3074904200968BDE8F04792
S315000049C008470000E4864000D4864000F486400094
S315000049D048064000AC864000014AD26B10470000F2
S315000049E0D420400070B505460D480E4A0E46816C2F
S315000049F010680144401C10600846FCF7CBFDFCF72C
S31500004A00BFFD044607E02046641CFCF7C3FDFCF727
S31500004A10B7FD05F8010B761EB6B2F4D270BD0000E4
S31500004A20D42040001C8940002DE9F84F8B4698465B
S31500004A309146824600242FA1FCF756FE05462E4ECF
S31500004A4048E02CA10020641CFCF74EFE0546012C14
S31500004A5040D10021FEF7C2FB00283FD000212846A6
S31500004A60FEF77EFBF0B10A2200212846FCF795FEF0
S31500004A70484501D3404521D90421346853461FA235
S31500004A800020A047CDF80080042134684B461CA2C4
S31500004A900120A047336801B00421BDE8F04F21A2F0
S31500004AA00120184704213468534614A20020A04769
S31500004AB0042133685A4601209847EBE70090042109
S31500004AC03768534618A20020B8470421336815A258
S31500004AD001209847002DB4D1BDE8F88F042137682E
S31500004AE0534606A20020B8470421336810A20120CD
S31500004AF09847EAE73D00000068094000257300007A
S31500004B00506C6561736520636865636B2076616CC4
S31500004B1075652072616E6765202564202D202564E9
S31500004B202E0000004F4B000025733D256400000059
S31500004B30556E4B6E6F7720636F6D6D616E6400000E
S31500004B4010B5002406A1FCF7CFFD30B104A100206A
S31500004B50FCF7CAFD08B1641CF8E7204610BD00004A
S31500004B602C0000002DE9F0419AB0884605461E4605
S31500004B701746002464216846FCF73CFD3946684622
S31500004B80FCF799FD41466846FCF7AEFD0EE041464E
S31500004B900020FCF7A9FD010007D0AC4205D1304644
S31500004BA0FCF789FD1AB0BDE8F081641C0028EED13F
S31500004BB0F8E700000849094B01EB5001B1FBF0F0A2
S31500004BC0A0F1100206499A4203D3BF2008610120D2
S31500004BD0704708610020704780B14F01F0FF0F0059
S31500004BE0001000302DE9F0410D46074602F08CFA20
S31500004BF0A84206D202F088FA044602F08DFA44432F
S31500004C0003E002F089FA00FB05F4002002F05CFAEA
S31500004C1006460A4D07E0304602F056FAA04202D98F
S31500004C200120BDE8F08168688007F4D528683860FF
S31500004C30E86840F00200E8600020F2E7001000306B
S31500004C4010B50021094A4FF4403404E0A14201D9CD
S31500004C50012010BD491C53689B07F7D511680160F8
S31500004C60D06840F00200D060002010BD0010003077
S31500004C702DE9F0410D46074602F046FAA84206D84D
S31500004C8002F042FA044602F047FA444303E002F017
S31500004C9043FA00FB05F4002002F016FA06460A4D18
S31500004CA007E0304602F010FAA04202D90120BDE822
S31500004CB0F0816868C007F4D1F8B22860E86840F06F
S31500004CC00100E8600020F2E70010003010B5002176
S31500004CD0094A4FF4403404E0A14201D9012010BD35
S31500004CE0491C5368DB07F7D1C0B21060D06840F0AA
S31500004CF00100D060002010BD0010003010B5094A38
S31500004D0004460B2112680120904707490D200968C7
S31500004D10884706492046C9688847054903208860B0
S31500004D20002010BD1806400000064000DC064000CA
S31500004D30001000300249CA680243CA60002070476A
S31500004D40001000300148C0687047000000100030B5
S31500004D500149002008607047F8864000024900209B
S31500004D60086023F089B90000F88640000149086010
S31500004D7070470000F88640002DE9F041184F194EA3
S31500004D8080254FF0E024C8B11749072009688847F5
S31500004D9001213A6807209047144A0021072012682B
S31500004DA09047C4F88052C4F80051A020E11D81F854
S31500004DB00004B06840F00800B0600DE0B06820F074
S31500004DC00800B06000213A6807209047C4F8805177
S31500004DD0BFF34F8FBFF36F8F0020BDE8F081000057
S31500004DE0A886400000100030AC864000B086400027
S31500004DF0084910B509680F208847074A0D21012088
S31500004E00126890474FF0E0214FF48020C1F800016E
S31500004E1010BD000000064000180640000348024985
S31500004E200160034941607047F14D00001C074000D6
S31500004E30354E00004FF0302318605960032098600B
S31500004E4042F08040D8607047F8B5054600200C4611
S31500004E500090032D3AD21E48405DB0B31D4F284640
S31500004E60B96888471D4E1C49009132686FF30B04E0
S31500004E7028469047C4F3074040F4E00100913268A9
S31500004E8028469047C4F3072040F4E00100913268B9
S31500004E90284690474FF4F001009132682846904723
S31500004EA00F4C69462846226890472268694628467C
S31500004EB090472268694628469047226869462846F0
S31500004EC09047796828468847F8BDFFE70120FBE749
S31500004ED0A48640009806400020007000D4064000DA
S31500004EE0D80640000903FFF7AFBF00000249085C7F
S31500004EF0002800D001207047A4864000FEB500259A
S31500004F000446009501950295032801D30120FEBDB4
S31500004F100B4E02AB01AA37686946B84700990948A3
S31500004F20C82905D0C22903D0EF2901D00555EDE7E0
S31500004F300155F2680121204690470020FEBD000081
S31500004F4098064000A48640002DE9FC5F00241D461B
S31500004F509246884606460094032817D25F4FB85DEE
S31500004F60A0B15F493046896888473846C8F3074B81
S31500004F70815DC8F307205B4F4BF4E00940F4E0087D
S31500004F800190C82905D0EF2903D020E00120BDE813
S31500004F90FC9FBAF1000F01D0534801E05248303867
S31500004FA0009001463A6830469047CDF800903A683E
S31500004FB0494630469047CDF800803A68414630462B
S31500004FC090474FF4E00100913A68304690474348D5
S31500004FD0805DC22830D1BAF1000F15D04249304663
S31500004FE0891D00913A6890474BF4EC0100913A68AC
S31500004FF030469047019840F4EC0100913A683046FB
S3150000500090474FF4EC0113E03749304630390091B0
S315000050103A689047CDF800903A684946304690473E
S31500005020CDF800803A684146304690474FF4E0019B
S3150000503000913A6830469047DFF8B08069463046BE
S31500005040D8F800209047D8F80020694630469047A7
S31500005050D8F80020694630469047D8F800206946BF
S3150000506030469047BAF1000F01D116E003D0285D13
S3150000507040F4EC0003E095F8FF0040F4FC000090DB
S3150000508001463A6830469047D8F8002069463046CF
S315000050909047641CFF2CE9D91AE0B946474600E060
S315000050A005D0285DC84640F4E000009004E095F87D
S315000050B0FF0040F4F00000900146D8F8002030468A
S315000050C090473A68694630469047641CFF2CE7D9FA
S315000050D0034930464968884759E70000A4864000DE
S315000050E098064000D406400032007000D806400002
S315000050F02DE9F84F00241D4691460F46824600943E
S3150000510003280CD2444911F80A0040B1DFF80C819B
S31500005110B9F1000FD8F8002004D0414904E001207D
S31500005120BDE8F88F3E4960395046009190473D4EA4
S315000051306946504632689047C7F3074040F4E0019D
S315000051400091D8F8002050469047C7F3072040F456
S31500005150E0010091D8F8002050469047F8B240F49C
S31500005160E0010091D8F80020504690474FF4E00146
S315000051700091D8F80020504690473268694650465C
S3150000518090473268694650469047326869465046AD
S3150000519090473268694650469047B9F1000F1CD0D7
S315000051A04FF4EE0B4FF4FE09474600E004D0584694
S315000051B0C846CDF800B002E04046CDF80080014672
S315000051C03A6850469047326869465046904700987C
S315000051D02855641CFF2CE9D91BE04FF4E20B4FF471
S315000051E0F209474600E004D05846C846CDF800B05C
S315000051F002E04046CDF8008001463A6850469047A6
S31500005200326869465046904700982855641CFF2C22
S31500005210E9D94FF0000083E7A4864000D406400099
S315000052206B007000D80640000902FFF78DBE000033
S31500005230024800210170417081707047A4864000C9
S3150000524000B5FFF7F5FF5DF804EB22F041BF000063
S31500005250F8B5044600200090032C18D20C48005DD7
S31500005260002814D00C4E0B49009132682046904716
S315000052700A4D694620462A6890470649204633313A
S315000052800091326890472A68694620469047F8BDE3
S31500005290A486400066007800D4064000D806400088
S315000052A02DE9F041124A0F460546012112680846CB
S315000052B0904710490120096888470F4E0020316841
S315000052C088470E4C612020600020012D0DD06060C3
S315000052D00546A063E063F168384688472563316870
S315000052E0012088470020BDE8F08110216160EFE7CA
S315000052F018064000000640000087400000600030AD
S315000053002DE9F047804615480025174640680E46A9
S315000053102C468047124948B914E060469C4201D1A8
S3150000532007B14846086105E0954202D90120BDE86B
S31500005330F0876D1C086F0007F6D5086908F80400A9
S31500005340641C06E04FF4807C731E4FF440794FF4E2
S315000053504032B442E1D30020E9E700000087400074
S31500005360006000302DE9F0418046134800251746BD
S3150000537040680E462C468047104B50B913E018F88B
S315000053800400644509D147B140F4007005E0954238
S3150000539002D90120BDE8F0816D1C196F8907F6D589
S315000053A01861641C03E0A6F1010C4FF44032B442CC
S315000053B0E5D30020EEE700000087400000600030E3
S315000053C00C480B4901600C4941600C4981600C494D
S315000053D0C1600C4901610C4941610C4981610C496C
S315000053E0C1610C4901620C4941620C4981627047F6
S315000053F015830200008740005D83020015550000FA
S31500005400315500000D5600000153000065530000A1
S31500005410A152000085540000CD5400002154000024
S315000054202DE9F041134A0F46054601211268084648
S3150000543090471149012009688847104E00203168BD
S3150000544088470F4C20202060012D03D1206840F0B2
S31500005450080020600025A563E563F1680120884700
S315000054602563C7F30900A060316801208847002042
S31500005470BDE8F081180640000006400000874000A5
S31500005480006000302DE9F04107460E4800240E4624
S3150000549040682546804701000B4802D10CE08C424B
S315000054A002D90120BDE8F081641C026F1207F6D50F
S315000054B002697A556D1C01E04FF44031B542F4D3D0
S315000054C00020EFE700874000006000302DE9F04142
S315000054D007460E4800240E464068254680470100D0
S315000054E00B4802D10CE08C4202D90120BDE8F081C4
S315000054F0641C026F9207F6D57A5D02616D1C01E0AD
S315000055004FF44031B542F4D30020EFE70087400066
S31500005510006000300548006800F00600022801D04F
S31500005520042801D000207047012070470060003039
S315000055302DE9F047DFF8C8800546D8F86C40DFF85B
S31500005540C490E00703D0D9F8001000208847D8F8A7
S3150000555000002D4E20F006014FF47A7755B1012D4B
S315000055602DD0E00703D0D9F800100120884701208C
S31500005570BDE8F08741F00200C8F8000022F096FB73
S31500005580B0FBF6F04FF47A614843B0FBF7F0C8F889
S31500005590140022F08BFBB0FBF6F041F25C2148438D
S315000055A0B0FBF7F0C8F8180022F080FBB0FBF6F06D
S315000055B032214843B0FBF7F0C8F8A00018E041F0EC
S315000055C00400C8F8000022F071FBB0FBF6F04FF4BF
S315000055D016714843B0FBF7F0C8F81C0022F066FBD2
S315000055E0B0FBF6F032214843B0FBF7F0C8F82000D4
S315000055F0E00703D0D9F80010012088470020B7E75C
S31500005600006000300087400040420F002DE9F04165
S315000056100C4D0746EC6E0C4EE00702D031680020B8
S31500005620884768686FF3090068606868C7F309010E
S3150000563008436860E00702D03168012088470020EF
S31500005640BDE8F0810060003000874000F0B52849D1
S31500005650264808602748284B002502680AB3081D1B
S315000056600560001D0560001D0560001D0560002029
S31500005670224E012413E003EB800756F82010C7F8EA
S31500005680A012410903EB8101D1F8A47400F01F0CAC
S3150000569004FA0CFC47EA0C07C1F8A474401C9042BB
S315000056A0E9D317480468002C1ED011485C30056009
S315000056B0001D0560001D05600020124D12E000EB84
S315000056C0400203EB800155F82260C1F8E46405EB63
S315000056D082025668C1F8F064926842F00042C1F84E
S315000056E0FC24401CA042EAD3F0BD0000000060206C
S315000056F0A0E400302404602000E0003000026020B6
S315000057002804602000046020F0B5284B2648C3F822
S31500005710500227480025026802B3C3F85452C3F862
S315000057205852C3F85C52C3F860520020214E01243F
S3150000573012E003EB800756F820103965410903EBA8
S315000057408101D1F8547200F01F0C04FA0CFC47EAF0
S315000057500C07C1F85472401C9042EAD316480468FC
S31500005760002C1FD015480560001D0560001D056052
S31500005770001D05600020124D12E000EB400203EB15
S31500005780800155F82260C1F8B46405EB82025668C0
S31500005790C1F8C464926842F00042C1F8D424401CA7
S315000057A0A042EAD3F0BD00000000400000E0003057
S315000057B0300440000002400034044000D4E40030CD
S315000057C0000440002DE9F041C6B0002702240D4632
S315000057D080464497B1F5807F17D8B5B1264E7268DA
S315000057E01AB126496846FBF7DDFE71682A460DEBBD
S315000057F001004146FBF7D6FE7068DFF87C804497CF
S31500005800054408F11808776011E0002416E02A1A0A
S3150000581030780828F9D258F8203044A968469847C5
S315000058200446032806D14498A84200D1012444988E
S31500005830A842ECD314B1012C0BD018E000F028F8E4
S315000058400F4807600F4807600F4807600F4807605A
S315000058500DE0449801242A1A69467260102A01D97B
S31500005860002404E01AB101440448FBF79BFE46B04D
S315000058702046BDE8F08100006C86400014A440007C
S3150000588030044000240460203404400028046020D2
S3150000589010B510210548FBF7ADFE05480021416013
S315000058A001708160C1600161416110BD14A44000B6
S315000058B06C864000074906480860074900200860D2
S315000058C006490860064908600649086070470000F6
S315000058D0117D02006406400030044000240460206C
S315000058E03404400028046020F0B5042A01D20120C7
S315000058F0F0BD0B68104C1D1800226769AE5C521C87
S315000059003E446661042AF8D3C21CC55C9A5C02EB6D
S315000059100565421C801C9A5C185C120402EB002090
S3150000592028441B1D20610B60E068001FE060042016
S3150000593020700320F0BD00006C86400070B50D4657
S31500005940042A01D2012070BD104EF468A24200D292
S31500005950144629680144002004E00A5C7369401C6F
S315000059601A447261A042F8D322463069FBF71AFE48
S31500005970286820442860306920443061F068001BA4
S31500005980F06001D106203070032070BD6C864000A7
S3150000599010B5042A01D2012010BD0A68C31CD35CCD
S315000059A0845C03EB0464431C801CD35C105C121DF6
S315000059B00A6006491B0403EB00204A692044904212
S315000059C04FF00000E8D10870032010BD6C8640003F
S315000059D02DE9F05F0024102A02D20120BDE8F09FD5
S315000059E00B681D180022AE5C521C34440C2AFAD3F4
S315000059F0C61CC55C9A5DDFF8DCB002EB0567451C8A
S31500005A005A5D4FEA024C821C13F802801B1D0CEBF8
S31500005A10082C07EB0C0A0B609F5D10F803C013F807
S31500005A20028007EB0C6713F805C01B1D4FEA0C4CF0
S31500005A300CEB082C6744CBF808700B60B9469F5DE9
S31500005A4010F803C013F8028007EB0C6713F805C0C3
S31500005A501B1D4FEA0C4C0CEB082CBC44CBF80CC0BD
S31500005A600B609E5DC05C5D5D9A5C1B1D2D040B602A
S31500005A70194906EB006005EB022210448A4501D065
S31500005A800220ABE7A0420AD109F00F005C460128CC
S31500005A900AD0022808D0042803D0082803D0002002
S31500005AA09CE7032000E00520207009F0F0000725A0
S31500005AB0102802D0202805D008E0FCF703FE0128B4
S31500005AC003D003E0FCF7FEFD00B9257000206061FD
S31500005AD0032083E76C864000484354502DE9F04F7D
S31500005AE0082A02D20120BDE8F08FDFF844C1DCF8B5
S31500005AF00C309E469A4200D3724622F00706BCF846
S31500005B000820C2F30329B9F1010F03D0B9F1020F3E
S31500005B1002D007E0474A00E0474A126802EBD60285
S31500005B20802A01D90020DEE70A681318002206E061
S31500005B309C5CDCF81450521C2C44CCF81440B24245
S31500005B40F6D30027851C441CC31C65E0B9F1010F80
S31500005B5003D0B9F1020F2BD05DE00A68DFF8D4B0AC
S31500005B6012F803C010F80280DBF800A00CEB086CFA
S31500005B7012F80480525D4FEA084808EB0222DFF86B
S31500005B80BC80944448F82AC00A68121D0A6012F8BC
S31500005B9003C010F802800CEB086C12F80480525D0A
S31500005BA04FEA084808EB02229444DFF8948029E083
S31500005BB00A68DFF884B012F803C010F80280DBF838
S31500005BC000A00CEB086C12F80480525D4FEA0848FE
S31500005BD008EB0222DFF86C80944448F82AC00A6871
S31500005BE0121D0A6012F803C010F802800CEB086C54
S31500005BF012F80480525D4FEA084808EB0222DFF8EB
S31500005C004880944448F82AC00A68121D0A600AF1BE
S31500005C100102CBF800200837B74297D30449BEEB00
S31500005C200600C86001D10620087003205BE700006B
S31500005C306C864000300440002404602000024000CE
S31500005C400000400000026020000060202DE9F84FAF
S31500005C500C2A02D20120BDE8F88F6F4DEB68009345
S31500005C609A4200D31A460C23B2FBF3F202EB42022D
S31500005C7096002A89C2F30329B9F1010F03D0B9F1BD
S31500005C80020F08D00EE0B6FBF3F3644A12681A441A
S31500005C90042A07D808E0B6FBF3F3614A12681A44EF
S31500005CA0032A01D90020D6E70A681318002204E067
S31500005CB09C5C6F69521C3C446C61B242F8D300276D
S31500005CC0841C431CC21C9AE0B9F1010F03D0B9F140
S31500005CD0020F49D092E00D68DFF840E115F802C0E6
S31500005CE010F80580DEF800A00CEB086C15F80380B0
S31500005CF02D5D4FEA084808EB0525DFF828810AEBF9
S31500005D004A0BAC4448F82BC00D682D1D0D6015F8E4
S31500005D1002C010F805800CEB086C15F803802D5DA9
S31500005D204FEA084808EB0525DFF8F880AC4408EB95
S31500005D308B0BCBF804C00D682D1D0D6015F802C045
S31500005D4010F805800CEB086C15F803802D5D4FEA02
S31500005D50084808EB0525AC44CBF808C00D682D1D96
S31500005D600D600AF1010547E00D68DFF8B4E015F8AB
S31500005D7002C010F80580DEF800B00CEB086C15F8D0
S31500005D8003802D5D4FEA084808EB0525DFF898806B
S31500005D900BEB4B0AAC4448F82AC00D682D1D0D606C
S31500005DA015F802C010F805800CEB086C15F8038096
S31500005DB02D5D4FEA084808EB0525DFF86C80AC44FA
S31500005DC008EB8A0ACAF804C00D682D1D0D6015F887
S31500005DD002C010F805800CEB086C15F803802D5DE9
S31500005DE04FEA084808EB0525AC44CAF808C00D6818
S31500005DF02D1D0D600BF10105CEF800500C37B74292
S31500005E00FFF462AF04490098801BC86001D10620E8
S31500005E10087003201FE700006C8640003404400031
S31500005E20280460200004400000046020F0B54AB158
S31500005E300E4BDE68B24200D332460F6807EB000C09
S31500005E40002007E00120F0BD1CF800405D69401C01
